{
  "_format": "hh-sol-artifact-1",
  "contractName": "AssetOwnership",
  "sourceName": "contracts/AssetOwnership.sol",
  "abi": [
    {
      "inputs": [],
      "stateMutability": "nonpayable",
      "type": "constructor"
    },
    {
      "inputs": [
        {
          "internalType": "address",
          "name": "sender",
          "type": "address"
        },
        {
          "internalType": "uint256",
          "name": "tokenId",
          "type": "uint256"
        },
        {
          "internalType": "address",
          "name": "owner",
          "type": "address"
        }
      ],
      "name": "ERC721IncorrectOwner",
      "type": "error"
    },
    {
      "inputs": [
        {
          "internalType": "address",
          "name": "operator",
          "type": "address"
        },
        {
          "internalType": "uint256",
          "name": "tokenId",
          "type": "uint256"
        }
      ],
      "name": "ERC721InsufficientApproval",
      "type": "error"
    },
    {
      "inputs": [
        {
          "internalType": "address",
          "name": "approver",
          "type": "address"
        }
      ],
      "name": "ERC721InvalidApprover",
      "type": "error"
    },
    {
      "inputs": [
        {
          "internalType": "address",
          "name": "operator",
          "type": "address"
        }
      ],
      "name": "ERC721InvalidOperator",
      "type": "error"
    },
    {
      "inputs": [
        {
          "internalType": "address",
          "name": "owner",
          "type": "address"
        }
      ],
      "name": "ERC721InvalidOwner",
      "type": "error"
    },
    {
      "inputs": [
        {
          "internalType": "address",
          "name": "receiver",
          "type": "address"
        }
      ],
      "name": "ERC721InvalidReceiver",
      "type": "error"
    },
    {
      "inputs": [
        {
          "internalType": "address",
          "name": "sender",
          "type": "address"
        }
      ],
      "name": "ERC721InvalidSender",
      "type": "error"
    },
    {
      "inputs": [
        {
          "internalType": "uint256",
          "name": "tokenId",
          "type": "uint256"
        }
      ],
      "name": "ERC721NonexistentToken",
      "type": "error"
    },
    {
      "inputs": [
        {
          "internalType": "address",
          "name": "owner",
          "type": "address"
        }
      ],
      "name": "OwnableInvalidOwner",
      "type": "error"
    },
    {
      "inputs": [
        {
          "internalType": "address",
          "name": "account",
          "type": "address"
        }
      ],
      "name": "OwnableUnauthorizedAccount",
      "type": "error"
    },
    {
      "anonymous": false,
      "inputs": [
        {
          "indexed": true,
          "internalType": "address",
          "name": "owner",
          "type": "address"
        },
        {
          "indexed": true,
          "internalType": "address",
          "name": "approved",
          "type": "address"
        },
        {
          "indexed": true,
          "internalType": "uint256",
          "name": "tokenId",
          "type": "uint256"
        }
      ],
      "name": "Approval",
      "type": "event"
    },
    {
      "anonymous": false,
      "inputs": [
        {
          "indexed": true,
          "internalType": "address",
          "name": "owner",
          "type": "address"
        },
        {
          "indexed": true,
          "internalType": "address",
          "name": "operator",
          "type": "address"
        },
        {
          "indexed": false,
          "internalType": "bool",
          "name": "approved",
          "type": "bool"
        }
      ],
      "name": "ApprovalForAll",
      "type": "event"
    },
    {
      "anonymous": false,
      "inputs": [
        {
          "indexed": false,
          "internalType": "uint256",
          "name": "_fromTokenId",
          "type": "uint256"
        },
        {
          "indexed": false,
          "internalType": "uint256",
          "name": "_toTokenId",
          "type": "uint256"
        }
      ],
      "name": "BatchMetadataUpdate",
      "type": "event"
    },
    {
      "anonymous": false,
      "inputs": [
        {
          "indexed": false,
          "internalType": "uint256",
          "name": "_tokenId",
          "type": "uint256"
        }
      ],
      "name": "MetadataUpdate",
      "type": "event"
    },
    {
      "anonymous": false,
      "inputs": [
        {
          "indexed": true,
          "internalType": "address",
          "name": "previousOwner",
          "type": "address"
        },
        {
          "indexed": true,
          "internalType": "address",
          "name": "newOwner",
          "type": "address"
        }
      ],
      "name": "OwnershipTransferred",
      "type": "event"
    },
    {
      "anonymous": false,
      "inputs": [
        {
          "indexed": true,
          "internalType": "address",
          "name": "from",
          "type": "address"
        },
        {
          "indexed": true,
          "internalType": "address",
          "name": "to",
          "type": "address"
        },
        {
          "indexed": true,
          "internalType": "uint256",
          "name": "tokenId",
          "type": "uint256"
        }
      ],
      "name": "Transfer",
      "type": "event"
    },
    {
      "inputs": [
        {
          "internalType": "address",
          "name": "to",
          "type": "address"
        },
        {
          "internalType": "uint256",
          "name": "tokenId",
          "type": "uint256"
        }
      ],
      "name": "approve",
      "outputs": [],
      "stateMutability": "nonpayable",
      "type": "function"
    },
    {
      "inputs": [
        {
          "internalType": "uint256",
          "name": "",
          "type": "uint256"
        }
      ],
      "name": "assetDetails",
      "outputs": [
        {
          "internalType": "uint256",
          "name": "capacity",
          "type": "uint256"
        },
        {
          "internalType": "string",
          "name": "location",
          "type": "string"
        },
        {
          "internalType": "uint256",
          "name": "installationDate",
          "type": "uint256"
        },
        {
          "internalType": "bool",
          "name": "verified",
          "type": "bool"
        }
      ],
      "stateMutability": "view",
      "type": "function"
    },
    {
      "inputs": [
        {
          "internalType": "address",
          "name": "owner",
          "type": "address"
        }
      ],
      "name": "balanceOf",
      "outputs": [
        {
          "internalType": "uint256",
          "name": "",
          "type": "uint256"
        }
      ],
      "stateMutability": "view",
      "type": "function"
    },
    {
      "inputs": [
        {
          "internalType": "uint256",
          "name": "tokenId",
          "type": "uint256"
        }
      ],
      "name": "getApproved",
      "outputs": [
        {
          "internalType": "address",
          "name": "",
          "type": "address"
        }
      ],
      "stateMutability": "view",
      "type": "function"
    },
    {
      "inputs": [
        {
          "internalType": "address",
          "name": "owner",
          "type": "address"
        },
        {
          "internalType": "address",
          "name": "operator",
          "type": "address"
        }
      ],
      "name": "isApprovedForAll",
      "outputs": [
        {
          "internalType": "bool",
          "name": "",
          "type": "bool"
        }
      ],
      "stateMutability": "view",
      "type": "function"
    },
    {
      "inputs": [],
      "name": "name",
      "outputs": [
        {
          "internalType": "string",
          "name": "",
          "type": "string"
        }
      ],
      "stateMutability": "view",
      "type": "function"
    },
    {
      "inputs": [],
      "name": "owner",
      "outputs": [
        {
          "internalType": "address",
          "name": "",
          "type": "address"
        }
      ],
      "stateMutability": "view",
      "type": "function"
    },
    {
      "inputs": [
        {
          "internalType": "uint256",
          "name": "tokenId",
          "type": "uint256"
        }
      ],
      "name": "ownerOf",
      "outputs": [
        {
          "internalType": "address",
          "name": "",
          "type": "address"
        }
      ],
      "stateMutability": "view",
      "type": "function"
    },
    {
      "inputs": [],
      "name": "renounceOwnership",
      "outputs": [],
      "stateMutability": "nonpayable",
      "type": "function"
    },
    {
      "inputs": [
        {
          "internalType": "address",
          "name": "to",
          "type": "address"
        },
        {
          "internalType": "string",
          "name": "uri",
          "type": "string"
        },
        {
          "internalType": "uint256",
          "name": "capacity",
          "type": "uint256"
        },
        {
          "internalType": "string",
          "name": "location",
          "type": "string"
        }
      ],
      "name": "safeMint",
      "outputs": [],
      "stateMutability": "nonpayable",
      "type": "function"
    },
    {
      "inputs": [
        {
          "internalType": "address",
          "name": "from",
          "type": "address"
        },
        {
          "internalType": "address",
          "name": "to",
          "type": "address"
        },
        {
          "internalType": "uint256",
          "name": "tokenId",
          "type": "uint256"
        }
      ],
      "name": "safeTransferFrom",
      "outputs": [],
      "stateMutability": "nonpayable",
      "type": "function"
    },
    {
      "inputs": [
        {
          "internalType": "address",
          "name": "from",
          "type": "address"
        },
        {
          "internalType": "address",
          "name": "to",
          "type": "address"
        },
        {
          "internalType": "uint256",
          "name": "tokenId",
          "type": "uint256"
        },
        {
          "internalType": "bytes",
          "name": "data",
          "type": "bytes"
        }
      ],
      "name": "safeTransferFrom",
      "outputs": [],
      "stateMutability": "nonpayable",
      "type": "function"
    },
    {
      "inputs": [
        {
          "internalType": "address",
          "name": "operator",
          "type": "address"
        },
        {
          "internalType": "bool",
          "name": "approved",
          "type": "bool"
        }
      ],
      "name": "setApprovalForAll",
      "outputs": [],
      "stateMutability": "nonpayable",
      "type": "function"
    },
    {
      "inputs": [
        {
          "internalType": "bytes4",
          "name": "interfaceId",
          "type": "bytes4"
        }
      ],
      "name": "supportsInterface",
      "outputs": [
        {
          "internalType": "bool",
          "name": "",
          "type": "bool"
        }
      ],
      "stateMutability": "view",
      "type": "function"
    },
    {
      "inputs": [],
      "name": "symbol",
      "outputs": [
        {
          "internalType": "string",
          "name": "",
          "type": "string"
        }
      ],
      "stateMutability": "view",
      "type": "function"
    },
    {
      "inputs": [
        {
          "internalType": "uint256",
          "name": "tokenId",
          "type": "uint256"
        }
      ],
      "name": "tokenURI",
      "outputs": [
        {
          "internalType": "string",
          "name": "",
          "type": "string"
        }
      ],
      "stateMutability": "view",
      "type": "function"
    },
    {
      "inputs": [
        {
          "internalType": "address",
          "name": "from",
          "type": "address"
        },
        {
          "internalType": "address",
          "name": "to",
          "type": "address"
        },
        {
          "internalType": "uint256",
          "name": "tokenId",
          "type": "uint256"
        }
      ],
      "name": "transferFrom",
      "outputs": [],
      "stateMutability": "nonpayable",
      "type": "function"
    },
    {
      "inputs": [
        {
          "internalType": "address",
          "name": "newOwner",
          "type": "address"
        }
      ],
      "name": "transferOwnership",
      "outputs": [],
      "stateMutability": "nonpayable",
      "type": "function"
    }
  ],
  "bytecode": "0x60806040523480156200001157600080fd5b50336040518060400160405280600a81526020017f536f6c61724173736574000000000000000000000000000000000000000000008152506040518060400160405280600581526020017f534f4c4152000000000000000000000000000000000000000000000000000000815250816000908162000090919062000472565b508060019081620000a2919062000472565b505050600073ffffffffffffffffffffffffffffffffffffffff168173ffffffffffffffffffffffffffffffffffffffff16036200011a5760006040517f1e4fbdf70000000000000000000000000000000000000000000000000000000081526004016200011191906200059e565b60405180910390fd5b6200012b816200013260201b60201c565b50620005bb565b6000600760009054906101000a900473ffffffffffffffffffffffffffffffffffffffff16905081600760006101000a81548173ffffffffffffffffffffffffffffffffffffffff021916908373ffffffffffffffffffffffffffffffffffffffff1602179055508173ffffffffffffffffffffffffffffffffffffffff168173ffffffffffffffffffffffffffffffffffffffff167f8be0079c531659141344cd1fd0a4f28419497f9722a3daafe3b4186f6b6457e060405160405180910390a35050565b600081519050919050565b7f4e487b7100000000000000000000000000000000000000000000000000000000600052604160045260246000fd5b7f4e487b7100000000000000000000000000000000000000000000000000000000600052602260045260246000fd5b600060028204905060018216806200027a57607f821691505b60208210810362000290576200028f62000232565b5b50919050565b60008190508160005260206000209050919050565b60006020601f8301049050919050565b600082821b905092915050565b600060088302620002fa7fffffffffffffffffffffffffffffffffffffffffffffffffffffffffffffffff82620002bb565b620003068683620002bb565b95508019841693508086168417925050509392505050565b6000819050919050565b6000819050919050565b6000620003536200034d62000347846200031e565b62000328565b6200031e565b9050919050565b6000819050919050565b6200036f8362000332565b620003876200037e826200035a565b848454620002c8565b825550505050565b600090565b6200039e6200038f565b620003ab81848462000364565b505050565b5b81811015620003d357620003c760008262000394565b600181019050620003b1565b5050565b601f8211156200042257620003ec8162000296565b620003f784620002ab565b8101602085101562000407578190505b6200041f6200041685620002ab565b830182620003b0565b50505b505050565b600082821c905092915050565b6000620004476000198460080262000427565b1980831691505092915050565b600062000462838362000434565b9150826002028217905092915050565b6200047d82620001f8565b67ffffffffffffffff81111562000499576200049862000203565b5b620004a5825462000261565b620004b2828285620003d7565b600060209050601f831160018114620004ea5760008415620004d5578287015190505b620004e1858262000454565b86555062000551565b601f198416620004fa8662000296565b60005b828110156200052457848901518255600182019150602085019450602081019050620004fd565b8683101562000544578489015162000540601f89168262000434565b8355505b6001600288020188555050505b505050505050565b600073ffffffffffffffffffffffffffffffffffffffff82169050919050565b6000620005868262000559565b9050919050565b620005988162000579565b82525050565b6000602082019050620005b560008301846200058d565b92915050565b6128a080620005cb6000396000f3fe608060405234801561001057600080fd5b50600436106101165760003560e01c806385d37430116100a2578063b88d4fde11610071578063b88d4fde146102cb578063c3967528146102e7578063c87b56dd1461031a578063e985e9c51461034a578063f2fde38b1461037a57610116565b806385d37430146102575780638da5cb5b1461027357806395d89b4114610291578063a22cb465146102af57610116565b806323b872dd116100e957806323b872dd146101b557806342842e0e146101d15780636352211e146101ed57806370a082311461021d578063715018a61461024d57610116565b806301ffc9a71461011b57806306fdde031461014b578063081812fc14610169578063095ea7b314610199575b600080fd5b61013560048036038101906101309190611c69565b610396565b6040516101429190611cb1565b60405180910390f35b6101536103a8565b6040516101609190611d5c565b60405180910390f35b610183600480360381019061017e9190611db4565b61043a565b6040516101909190611e22565b60405180910390f35b6101b360048036038101906101ae9190611e69565b610456565b005b6101cf60048036038101906101ca9190611ea9565b61046c565b005b6101eb60048036038101906101e69190611ea9565b61056e565b005b61020760048036038101906102029190611db4565b61058e565b6040516102149190611e22565b60405180910390f35b61023760048036038101906102329190611efc565b6105a0565b6040516102449190611f38565b60405180910390f35b61025561065a565b005b610271600480360381019061026c9190612088565b61066e565b005b61027b610730565b6040516102889190611e22565b60405180910390f35b61029961075a565b6040516102a69190611d5c565b60405180910390f35b6102c960048036038101906102c49190612153565b6107ec565b005b6102e560048036038101906102e09190612234565b610802565b005b61030160048036038101906102fc9190611db4565b610827565b60405161031194939291906122b7565b60405180910390f35b610334600480360381019061032f9190611db4565b6108ec565b6040516103419190611d5c565b60405180910390f35b610364600480360381019061035f9190612303565b6108fe565b6040516103719190611cb1565b60405180910390f35b610394600480360381019061038f9190611efc565b610992565b005b60006103a182610a18565b9050919050565b6060600080546103b790612372565b80601f01602080910402602001604051908101604052809291908181526020018280546103e390612372565b80156104305780601f1061040557610100808354040283529160200191610430565b820191906000526020600020905b81548152906001019060200180831161041357829003601f168201915b5050505050905090565b600061044582610a79565b5061044f82610b01565b9050919050565b6104688282610463610b3e565b610b46565b5050565b600073ffffffffffffffffffffffffffffffffffffffff168273ffffffffffffffffffffffffffffffffffffffff16036104de5760006040517f64a0ae920000000000000000000000000000000000000000000000000000000081526004016104d59190611e22565b60405180910390fd5b60006104f283836104ed610b3e565b610b58565b90508373ffffffffffffffffffffffffffffffffffffffff168173ffffffffffffffffffffffffffffffffffffffff1614610568578382826040517f64283d7b00000000000000000000000000000000000000000000000000000000815260040161055f939291906123a3565b60405180910390fd5b50505050565b61058983838360405180602001604052806000815250610802565b505050565b600061059982610a79565b9050919050565b60008073ffffffffffffffffffffffffffffffffffffffff168273ffffffffffffffffffffffffffffffffffffffff16036106135760006040517f89c62b6400000000000000000000000000000000000000000000000000000000815260040161060a9190611e22565b60405180910390fd5b600360008373ffffffffffffffffffffffffffffffffffffffff1673ffffffffffffffffffffffffffffffffffffffff168152602001908152602001600020549050919050565b610662610d72565b61066c6000610df9565b565b610676610d72565b60006008600081548092919061068b90612409565b91905055905061069b8582610ebf565b6106a58185610edd565b604051806080016040528084815260200183815260200142815260200160011515815250600960008381526020019081526020016000206000820151816000015560208201518160010190816106fb91906125fd565b506040820151816002015560608201518160030160006101000a81548160ff0219169083151502179055509050505050505050565b6000600760009054906101000a900473ffffffffffffffffffffffffffffffffffffffff16905090565b60606001805461076990612372565b80601f016020809104026020016040519081016040528092919081815260200182805461079590612372565b80156107e25780601f106107b7576101008083540402835291602001916107e2565b820191906000526020600020905b8154815290600101906020018083116107c557829003601f168201915b5050505050905090565b6107fe6107f7610b3e565b8383610f39565b5050565b61080d84848461046c565b610821610818610b3e565b858585856110a8565b50505050565b600960205280600052604060002060009150905080600001549080600101805461085090612372565b80601f016020809104026020016040519081016040528092919081815260200182805461087c90612372565b80156108c95780601f1061089e576101008083540402835291602001916108c9565b820191906000526020600020905b8154815290600101906020018083116108ac57829003601f168201915b5050505050908060020154908060030160009054906101000a900460ff16905084565b60606108f782611259565b9050919050565b6000600560008473ffffffffffffffffffffffffffffffffffffffff1673ffffffffffffffffffffffffffffffffffffffff16815260200190815260200160002060008373ffffffffffffffffffffffffffffffffffffffff1673ffffffffffffffffffffffffffffffffffffffff16815260200190815260200160002060009054906101000a900460ff16905092915050565b61099a610d72565b600073ffffffffffffffffffffffffffffffffffffffff168173ffffffffffffffffffffffffffffffffffffffff1603610a0c5760006040517f1e4fbdf7000000000000000000000000000000000000000000000000000000008152600401610a039190611e22565b60405180910390fd5b610a1581610df9565b50565b6000634906490660e01b7bffffffffffffffffffffffffffffffffffffffffffffffffffffffff1916827bffffffffffffffffffffffffffffffffffffffffffffffffffffffff19161480610a725750610a718261136c565b5b9050919050565b600080610a858361144e565b9050600073ffffffffffffffffffffffffffffffffffffffff168173ffffffffffffffffffffffffffffffffffffffff1603610af857826040517f7e273289000000000000000000000000000000000000000000000000000000008152600401610aef9190611f38565b60405180910390fd5b80915050919050565b60006004600083815260200190815260200160002060009054906101000a900473ffffffffffffffffffffffffffffffffffffffff169050919050565b600033905090565b610b53838383600161148b565b505050565b600080610b648461144e565b9050600073ffffffffffffffffffffffffffffffffffffffff168373ffffffffffffffffffffffffffffffffffffffff1614610ba657610ba5818486611650565b5b600073ffffffffffffffffffffffffffffffffffffffff168173ffffffffffffffffffffffffffffffffffffffff1614610c3757610be860008560008061148b565b6001600360008373ffffffffffffffffffffffffffffffffffffffff1673ffffffffffffffffffffffffffffffffffffffff168152602001908152602001600020600082825403925050819055505b600073ffffffffffffffffffffffffffffffffffffffff168573ffffffffffffffffffffffffffffffffffffffff1614610cba576001600360008773ffffffffffffffffffffffffffffffffffffffff1673ffffffffffffffffffffffffffffffffffffffff168152602001908152602001600020600082825401925050819055505b846002600086815260200190815260200160002060006101000a81548173ffffffffffffffffffffffffffffffffffffffff021916908373ffffffffffffffffffffffffffffffffffffffff160217905550838573ffffffffffffffffffffffffffffffffffffffff168273ffffffffffffffffffffffffffffffffffffffff167fddf252ad1be2c89b69c2b068fc378daa952ba7f163c4a11628f55a4df523b3ef60405160405180910390a4809150509392505050565b610d7a610b3e565b73ffffffffffffffffffffffffffffffffffffffff16610d98610730565b73ffffffffffffffffffffffffffffffffffffffff1614610df757610dbb610b3e565b6040517f118cdaa7000000000000000000000000000000000000000000000000000000008152600401610dee9190611e22565b60405180910390fd5b565b6000600760009054906101000a900473ffffffffffffffffffffffffffffffffffffffff16905081600760006101000a81548173ffffffffffffffffffffffffffffffffffffffff021916908373ffffffffffffffffffffffffffffffffffffffff1602179055508173ffffffffffffffffffffffffffffffffffffffff168173ffffffffffffffffffffffffffffffffffffffff167f8be0079c531659141344cd1fd0a4f28419497f9722a3daafe3b4186f6b6457e060405160405180910390a35050565b610ed9828260405180602001604052806000815250611714565b5050565b80600660008481526020019081526020016000209081610efd91906125fd565b507ff8e1a15aba9398e019f0b49df1a4fde98ee17ae345cb5f6b5e2c27f5033e8ce782604051610f2d9190611f38565b60405180910390a15050565b600073ffffffffffffffffffffffffffffffffffffffff168273ffffffffffffffffffffffffffffffffffffffff1603610faa57816040517f5b08ba18000000000000000000000000000000000000000000000000000000008152600401610fa19190611e22565b60405180910390fd5b80600560008573ffffffffffffffffffffffffffffffffffffffff1673ffffffffffffffffffffffffffffffffffffffff16815260200190815260200160002060008473ffffffffffffffffffffffffffffffffffffffff1673ffffffffffffffffffffffffffffffffffffffff16815260200190815260200160002060006101000a81548160ff0219169083151502179055508173ffffffffffffffffffffffffffffffffffffffff168373ffffffffffffffffffffffffffffffffffffffff167f17307eab39ab6107e8899845ad3d59bd9653f200f220920489ca2b5937696c318360405161109b9190611cb1565b60405180910390a3505050565b60008373ffffffffffffffffffffffffffffffffffffffff163b1115611252578273ffffffffffffffffffffffffffffffffffffffff1663150b7a02868685856040518563ffffffff1660e01b81526004016111079493929190612724565b6020604051808303816000875af192505050801561114357506040513d601f19601f820116820180604052508101906111409190612785565b60015b6111c7573d8060008114611173576040519150601f19603f3d011682016040523d82523d6000602084013e611178565b606091505b5060008151036111bf57836040517f64a0ae920000000000000000000000000000000000000000000000000000000081526004016111b69190611e22565b60405180910390fd5b805160208201fd5b63150b7a0260e01b7bffffffffffffffffffffffffffffffffffffffffffffffffffffffff1916817bffffffffffffffffffffffffffffffffffffffffffffffffffffffff19161461125057836040517f64a0ae920000000000000000000000000000000000000000000000000000000081526004016112479190611e22565b60405180910390fd5b505b5050505050565b606061126482610a79565b50600060066000848152602001908152602001600020805461128590612372565b80601f01602080910402602001604051908101604052809291908181526020018280546112b190612372565b80156112fe5780601f106112d3576101008083540402835291602001916112fe565b820191906000526020600020905b8154815290600101906020018083116112e157829003601f168201915b50505050509050600061130f611738565b90506000815103611324578192505050611367565b6000825111156113595780826040516020016113419291906127ee565b60405160208183030381529060405292505050611367565b6113628461174f565b925050505b919050565b60007f80ac58cd000000000000000000000000000000000000000000000000000000007bffffffffffffffffffffffffffffffffffffffffffffffffffffffff1916827bffffffffffffffffffffffffffffffffffffffffffffffffffffffff1916148061143757507f5b5e139f000000000000000000000000000000000000000000000000000000007bffffffffffffffffffffffffffffffffffffffffffffffffffffffff1916827bffffffffffffffffffffffffffffffffffffffffffffffffffffffff1916145b806114475750611446826117b8565b5b9050919050565b60006002600083815260200190815260200160002060009054906101000a900473ffffffffffffffffffffffffffffffffffffffff169050919050565b80806114c45750600073ffffffffffffffffffffffffffffffffffffffff168273ffffffffffffffffffffffffffffffffffffffff1614155b156115f85760006114d484610a79565b9050600073ffffffffffffffffffffffffffffffffffffffff168373ffffffffffffffffffffffffffffffffffffffff161415801561153f57508273ffffffffffffffffffffffffffffffffffffffff168173ffffffffffffffffffffffffffffffffffffffff1614155b8015611552575061155081846108fe565b155b1561159457826040517fa9fbf51f00000000000000000000000000000000000000000000000000000000815260040161158b9190611e22565b60405180910390fd5b81156115f657838573ffffffffffffffffffffffffffffffffffffffff168273ffffffffffffffffffffffffffffffffffffffff167f8c5be1e5ebec7d5bd14f71427d1e84f3dd0314c0f7b2291e5b200ac8c7c3b92560405160405180910390a45b505b836004600085815260200190815260200160002060006101000a81548173ffffffffffffffffffffffffffffffffffffffff021916908373ffffffffffffffffffffffffffffffffffffffff16021790555050505050565b61165b838383611822565b61170f57600073ffffffffffffffffffffffffffffffffffffffff168373ffffffffffffffffffffffffffffffffffffffff16036116d057806040517f7e2732890000000000000000000000000000000000000000000000000000000081526004016116c79190611f38565b60405180910390fd5b81816040517f177e802f000000000000000000000000000000000000000000000000000000008152600401611706929190612812565b60405180910390fd5b505050565b61171e83836118e3565b611733611729610b3e565b60008585856110a8565b505050565b606060405180602001604052806000815250905090565b606061175a82610a79565b506000611765611738565b9050600081511161178557604051806020016040528060008152506117b0565b8061178f846119dc565b6040516020016117a09291906127ee565b6040516020818303038152906040525b915050919050565b60007f01ffc9a7000000000000000000000000000000000000000000000000000000007bffffffffffffffffffffffffffffffffffffffffffffffffffffffff1916827bffffffffffffffffffffffffffffffffffffffffffffffffffffffff1916149050919050565b60008073ffffffffffffffffffffffffffffffffffffffff168373ffffffffffffffffffffffffffffffffffffffff16141580156118da57508273ffffffffffffffffffffffffffffffffffffffff168473ffffffffffffffffffffffffffffffffffffffff16148061189b575061189a84846108fe565b5b806118d957508273ffffffffffffffffffffffffffffffffffffffff166118c183610b01565b73ffffffffffffffffffffffffffffffffffffffff16145b5b90509392505050565b600073ffffffffffffffffffffffffffffffffffffffff168273ffffffffffffffffffffffffffffffffffffffff16036119555760006040517f64a0ae9200000000000000000000000000000000000000000000000000000000815260040161194c9190611e22565b60405180910390fd5b600061196383836000610b58565b9050600073ffffffffffffffffffffffffffffffffffffffff168173ffffffffffffffffffffffffffffffffffffffff16146119d75760006040517f73c6ac6e0000000000000000000000000000000000000000000000000000000081526004016119ce9190611e22565b60405180910390fd5b505050565b6060600060016119eb84611aaa565b01905060008167ffffffffffffffff811115611a0a57611a09611f5d565b5b6040519080825280601f01601f191660200182016040528015611a3c5781602001600182028036833780820191505090505b509050600082602083010190505b600115611a9f578080600190039150507f3031323334353637383961626364656600000000000000000000000000000000600a86061a8153600a8581611a9357611a9261283b565b5b04945060008503611a4a575b819350505050919050565b600080600090507a184f03e93ff9f4daa797ed6e38ed64bf6a1f0100000000000000008310611b08577a184f03e93ff9f4daa797ed6e38ed64bf6a1f0100000000000000008381611afe57611afd61283b565b5b0492506040810190505b6d04ee2d6d415b85acef81000000008310611b45576d04ee2d6d415b85acef81000000008381611b3b57611b3a61283b565b5b0492506020810190505b662386f26fc100008310611b7457662386f26fc100008381611b6a57611b6961283b565b5b0492506010810190505b6305f5e1008310611b9d576305f5e1008381611b9357611b9261283b565b5b0492506008810190505b6127108310611bc2576127108381611bb857611bb761283b565b5b0492506004810190505b60648310611be55760648381611bdb57611bda61283b565b5b0492506002810190505b600a8310611bf4576001810190505b80915050919050565b6000604051905090565b600080fd5b600080fd5b60007fffffffff0000000000000000000000000000000000000000000000000000000082169050919050565b611c4681611c11565b8114611c5157600080fd5b50565b600081359050611c6381611c3d565b92915050565b600060208284031215611c7f57611c7e611c07565b5b6000611c8d84828501611c54565b91505092915050565b60008115159050919050565b611cab81611c96565b82525050565b6000602082019050611cc66000830184611ca2565b92915050565b600081519050919050565b600082825260208201905092915050565b60005b83811015611d06578082015181840152602081019050611ceb565b60008484015250505050565b6000601f19601f8301169050919050565b6000611d2e82611ccc565b611d388185611cd7565b9350611d48818560208601611ce8565b611d5181611d12565b840191505092915050565b60006020820190508181036000830152611d768184611d23565b905092915050565b6000819050919050565b611d9181611d7e565b8114611d9c57600080fd5b50565b600081359050611dae81611d88565b92915050565b600060208284031215611dca57611dc9611c07565b5b6000611dd884828501611d9f565b91505092915050565b600073ffffffffffffffffffffffffffffffffffffffff82169050919050565b6000611e0c82611de1565b9050919050565b611e1c81611e01565b82525050565b6000602082019050611e376000830184611e13565b92915050565b611e4681611e01565b8114611e5157600080fd5b50565b600081359050611e6381611e3d565b92915050565b60008060408385031215611e8057611e7f611c07565b5b6000611e8e85828601611e54565b9250506020611e9f85828601611d9f565b9150509250929050565b600080600060608486031215611ec257611ec1611c07565b5b6000611ed086828701611e54565b9350506020611ee186828701611e54565b9250506040611ef286828701611d9f565b9150509250925092565b600060208284031215611f1257611f11611c07565b5b6000611f2084828501611e54565b91505092915050565b611f3281611d7e565b82525050565b6000602082019050611f4d6000830184611f29565b92915050565b600080fd5b600080fd5b7f4e487b7100000000000000000000000000000000000000000000000000000000600052604160045260246000fd5b611f9582611d12565b810181811067ffffffffffffffff82111715611fb457611fb3611f5d565b5b80604052505050565b6000611fc7611bfd565b9050611fd38282611f8c565b919050565b600067ffffffffffffffff821115611ff357611ff2611f5d565b5b611ffc82611d12565b9050602081019050919050565b82818337600083830152505050565b600061202b61202684611fd8565b611fbd565b90508281526020810184848401111561204757612046611f58565b5b612052848285612009565b509392505050565b600082601f83011261206f5761206e611f53565b5b813561207f848260208601612018565b91505092915050565b600080600080608085870312156120a2576120a1611c07565b5b60006120b087828801611e54565b945050602085013567ffffffffffffffff8111156120d1576120d0611c0c565b5b6120dd8782880161205a565b93505060406120ee87828801611d9f565b925050606085013567ffffffffffffffff81111561210f5761210e611c0c565b5b61211b8782880161205a565b91505092959194509250565b61213081611c96565b811461213b57600080fd5b50565b60008135905061214d81612127565b92915050565b6000806040838503121561216a57612169611c07565b5b600061217885828601611e54565b92505060206121898582860161213e565b9150509250929050565b600067ffffffffffffffff8211156121ae576121ad611f5d565b5b6121b782611d12565b9050602081019050919050565b60006121d76121d284612193565b611fbd565b9050828152602081018484840111156121f3576121f2611f58565b5b6121fe848285612009565b509392505050565b600082601f83011261221b5761221a611f53565b5b813561222b8482602086016121c4565b91505092915050565b6000806000806080858703121561224e5761224d611c07565b5b600061225c87828801611e54565b945050602061226d87828801611e54565b935050604061227e87828801611d9f565b925050606085013567ffffffffffffffff81111561229f5761229e611c0c565b5b6122ab87828801612206565b91505092959194509250565b60006080820190506122cc6000830187611f29565b81810360208301526122de8186611d23565b90506122ed6040830185611f29565b6122fa6060830184611ca2565b95945050505050565b6000806040838503121561231a57612319611c07565b5b600061232885828601611e54565b925050602061233985828601611e54565b9150509250929050565b7f4e487b7100000000000000000000000000000000000000000000000000000000600052602260045260246000fd5b6000600282049050600182168061238a57607f821691505b60208210810361239d5761239c612343565b5b50919050565b60006060820190506123b86000830186611e13565b6123c56020830185611f29565b6123d26040830184611e13565b949350505050565b7f4e487b7100000000000000000000000000000000000000000000000000000000600052601160045260246000fd5b600061241482611d7e565b91507fffffffffffffffffffffffffffffffffffffffffffffffffffffffffffffffff8203612446576124456123da565b5b600182019050919050565b60008190508160005260206000209050919050565b60006020601f8301049050919050565b600082821b905092915050565b6000600883026124b37fffffffffffffffffffffffffffffffffffffffffffffffffffffffffffffffff82612476565b6124bd8683612476565b95508019841693508086168417925050509392505050565b6000819050919050565b60006124fa6124f56124f084611d7e565b6124d5565b611d7e565b9050919050565b6000819050919050565b612514836124df565b61252861252082612501565b848454612483565b825550505050565b600090565b61253d612530565b61254881848461250b565b505050565b5b8181101561256c57612561600082612535565b60018101905061254e565b5050565b601f8211156125b15761258281612451565b61258b84612466565b8101602085101561259a578190505b6125ae6125a685612466565b83018261254d565b50505b505050565b600082821c905092915050565b60006125d4600019846008026125b6565b1980831691505092915050565b60006125ed83836125c3565b9150826002028217905092915050565b61260682611ccc565b67ffffffffffffffff81111561261f5761261e611f5d565b5b6126298254612372565b612634828285612570565b600060209050601f8311600181146126675760008415612655578287015190505b61265f85826125e1565b8655506126c7565b601f19841661267586612451565b60005b8281101561269d57848901518255600182019150602085019450602081019050612678565b868310156126ba57848901516126b6601f8916826125c3565b8355505b6001600288020188555050505b505050505050565b600081519050919050565b600082825260208201905092915050565b60006126f6826126cf565b61270081856126da565b9350612710818560208601611ce8565b61271981611d12565b840191505092915050565b60006080820190506127396000830187611e13565b6127466020830186611e13565b6127536040830185611f29565b818103606083015261276581846126eb565b905095945050505050565b60008151905061277f81611c3d565b92915050565b60006020828403121561279b5761279a611c07565b5b60006127a984828501612770565b91505092915050565b600081905092915050565b60006127c882611ccc565b6127d281856127b2565b93506127e2818560208601611ce8565b80840191505092915050565b60006127fa82856127bd565b915061280682846127bd565b91508190509392505050565b60006040820190506128276000830185611e13565b6128346020830184611f29565b9392505050565b7f4e487b7100000000000000000000000000000000000000000000000000000000600052601260045260246000fdfea26469706673582212201376cf55795ea1a5e5b482ddf2ec1364cdacf983fa8b753af965252e2906c1a264736f6c63430008140033",
  "linkReferences": {},
  "deployedLinkReferences": {}
}