{
  "_format": "hh-sol-artifact-1",
  "contractName": "P2PTrading",
  "sourceName": "contracts/P2PTrading.sol",
  "abi": [
    {
      "inputs": [
        {
          "internalType": "address",
          "name": "_tokenAddress",
          "type": "address"
        }
      ],
      "stateMutability": "nonpayable",
      "type": "constructor"
    },
    {
      "inputs": [
        {
          "internalType": "address",
          "name": "owner",
          "type": "address"
        }
      ],
      "name": "OwnableInvalidOwner",
      "type": "error"
    },
    {
      "inputs": [
        {
          "internalType": "address",
          "name": "account",
          "type": "address"
        }
      ],
      "name": "OwnableUnauthorizedAccount",
      "type": "error"
    },
    {
      "inputs": [],
      "name": "ReentrancyGuardReentrantCall",
      "type": "error"
    },
    {
      "anonymous": false,
      "inputs": [
        {
          "indexed": true,
          "internalType": "uint256",
          "name": "listingId",
          "type": "uint256"
        },
        {
          "indexed": true,
          "internalType": "address",
          "name": "seller",
          "type": "address"
        },
        {
          "indexed": false,
          "internalType": "uint256",
          "name": "amount",
          "type": "uint256"
        },
        {
          "indexed": false,
          "internalType": "uint256",
          "name": "price",
          "type": "uint256"
        }
      ],
      "name": "EnergyListed",
      "type": "event"
    },
    {
      "anonymous": false,
      "inputs": [
        {
          "indexed": true,
          "internalType": "uint256",
          "name": "transactionId",
          "type": "uint256"
        },
        {
          "indexed": true,
          "internalType": "uint256",
          "name": "listingId",
          "type": "uint256"
        },
        {
          "indexed": true,
          "internalType": "address",
          "name": "buyer",
          "type": "address"
        },
        {
          "indexed": false,
          "internalType": "address",
          "name": "seller",
          "type": "address"
        },
        {
          "indexed": false,
          "internalType": "uint256",
          "name": "amount",
          "type": "uint256"
        },
        {
          "indexed": false,
          "internalType": "uint256",
          "name": "totalPrice",
          "type": "uint256"
        }
      ],
      "name": "EnergySold",
      "type": "event"
    },
    {
      "anonymous": false,
      "inputs": [
        {
          "indexed": true,
          "internalType": "uint256",
          "name": "listingId",
          "type": "uint256"
        }
      ],
      "name": "ListingCancelled",
      "type": "event"
    },
    {
      "anonymous": false,
      "inputs": [
        {
          "indexed": true,
          "internalType": "address",
          "name": "previousOwner",
          "type": "address"
        },
        {
          "indexed": true,
          "internalType": "address",
          "name": "newOwner",
          "type": "address"
        }
      ],
      "name": "OwnershipTransferred",
      "type": "event"
    },
    {
      "inputs": [
        {
          "internalType": "uint256",
          "name": "_listingId",
          "type": "uint256"
        },
        {
          "internalType": "uint256",
          "name": "_amountToBuy",
          "type": "uint256"
        }
      ],
      "name": "buyEnergy",
      "outputs": [],
      "stateMutability": "nonpayable",
      "type": "function"
    },
    {
      "inputs": [
        {
          "internalType": "uint256",
          "name": "_listingId",
          "type": "uint256"
        }
      ],
      "name": "cancelListing",
      "outputs": [],
      "stateMutability": "nonpayable",
      "type": "function"
    },
    {
      "inputs": [],
      "name": "energyToken",
      "outputs": [
        {
          "internalType": "contract IERC20",
          "name": "",
          "type": "address"
        }
      ],
      "stateMutability": "view",
      "type": "function"
    },
    {
      "inputs": [
        {
          "internalType": "uint256",
          "name": "_listingId",
          "type": "uint256"
        }
      ],
      "name": "getListing",
      "outputs": [
        {
          "components": [
            {
              "internalType": "uint256",
              "name": "id",
              "type": "uint256"
            },
            {
              "internalType": "address",
              "name": "seller",
              "type": "address"
            },
            {
              "internalType": "uint256",
              "name": "energyAmount",
              "type": "uint256"
            },
            {
              "internalType": "uint256",
              "name": "pricePerUnit",
              "type": "uint256"
            },
            {
              "internalType": "bool",
              "name": "active",
              "type": "bool"
            }
          ],
          "internalType": "struct P2PTrading.Listing",
          "name": "",
          "type": "tuple"
        }
      ],
      "stateMutability": "view",
      "type": "function"
    },
    {
      "inputs": [
        {
          "internalType": "uint256",
          "name": "_energyAmount",
          "type": "uint256"
        },
        {
          "internalType": "uint256",
          "name": "_pricePerUnit",
          "type": "uint256"
        }
      ],
      "name": "listEnergy",
      "outputs": [],
      "stateMutability": "nonpayable",
      "type": "function"
    },
    {
      "inputs": [
        {
          "internalType": "uint256",
          "name": "",
          "type": "uint256"
        }
      ],
      "name": "listings",
      "outputs": [
        {
          "internalType": "uint256",
          "name": "id",
          "type": "uint256"
        },
        {
          "internalType": "address",
          "name": "seller",
          "type": "address"
        },
        {
          "internalType": "uint256",
          "name": "energyAmount",
          "type": "uint256"
        },
        {
          "internalType": "uint256",
          "name": "pricePerUnit",
          "type": "uint256"
        },
        {
          "internalType": "bool",
          "name": "active",
          "type": "bool"
        }
      ],
      "stateMutability": "view",
      "type": "function"
    },
    {
      "inputs": [],
      "name": "nextListingId",
      "outputs": [
        {
          "internalType": "uint256",
          "name": "",
          "type": "uint256"
        }
      ],
      "stateMutability": "view",
      "type": "function"
    },
    {
      "inputs": [],
      "name": "nextTransactionId",
      "outputs": [
        {
          "internalType": "uint256",
          "name": "",
          "type": "uint256"
        }
      ],
      "stateMutability": "view",
      "type": "function"
    },
    {
      "inputs": [],
      "name": "owner",
      "outputs": [
        {
          "internalType": "address",
          "name": "",
          "type": "address"
        }
      ],
      "stateMutability": "view",
      "type": "function"
    },
    {
      "inputs": [],
      "name": "renounceOwnership",
      "outputs": [],
      "stateMutability": "nonpayable",
      "type": "function"
    },
    {
      "inputs": [
        {
          "internalType": "uint256",
          "name": "",
          "type": "uint256"
        }
      ],
      "name": "transactions",
      "outputs": [
        {
          "internalType": "uint256",
          "name": "id",
          "type": "uint256"
        },
        {
          "internalType": "uint256",
          "name": "listingId",
          "type": "uint256"
        },
        {
          "internalType": "address",
          "name": "buyer",
          "type": "address"
        },
        {
          "internalType": "address",
          "name": "seller",
          "type": "address"
        },
        {
          "internalType": "uint256",
          "name": "amount",
          "type": "uint256"
        },
        {
          "internalType": "uint256",
          "name": "totalPrice",
          "type": "uint256"
        },
        {
          "internalType": "uint256",
          "name": "timestamp",
          "type": "uint256"
        }
      ],
      "stateMutability": "view",
      "type": "function"
    },
    {
      "inputs": [
        {
          "internalType": "address",
          "name": "newOwner",
          "type": "address"
        }
      ],
      "name": "transferOwnership",
      "outputs": [],
      "stateMutability": "nonpayable",
      "type": "function"
    },
    {
      "inputs": [
        {
          "internalType": "address",
          "name": "",
          "type": "address"
        },
        {
          "internalType": "uint256",
          "name": "",
          "type": "uint256"
        }
      ],
      "name": "userListings",
      "outputs": [
        {
          "internalType": "uint256",
          "name": "",
          "type": "uint256"
        }
      ],
      "stateMutability": "view",
      "type": "function"
    },
    {
      "inputs": [
        {
          "internalType": "address",
          "name": "",
          "type": "address"
        },
        {
          "internalType": "uint256",
          "name": "",
          "type": "uint256"
        }
      ],
      "name": "userTransactions",
      "outputs": [
        {
          "internalType": "uint256",
          "name": "",
          "type": "uint256"
        }
      ],
      "stateMutability": "view",
      "type": "function"
    }
  ],
  "bytecode": "0x60806040523480156200001157600080fd5b5060405162001fe438038062001fe483398181016040528101906200003791906200023f565b336001600081905550600073ffffffffffffffffffffffffffffffffffffffff168173ffffffffffffffffffffffffffffffffffffffff1603620000b55760006040517f1e4fbdf7000000000000000000000000000000000000000000000000000000008152600401620000ac919062000282565b60405180910390fd5b620000c6816200010f60201b60201c565b5080600260006101000a81548173ffffffffffffffffffffffffffffffffffffffff021916908373ffffffffffffffffffffffffffffffffffffffff160217905550506200029f565b6000600160009054906101000a900473ffffffffffffffffffffffffffffffffffffffff16905081600160006101000a81548173ffffffffffffffffffffffffffffffffffffffff021916908373ffffffffffffffffffffffffffffffffffffffff1602179055508173ffffffffffffffffffffffffffffffffffffffff168173ffffffffffffffffffffffffffffffffffffffff167f8be0079c531659141344cd1fd0a4f28419497f9722a3daafe3b4186f6b6457e060405160405180910390a35050565b600080fd5b600073ffffffffffffffffffffffffffffffffffffffff82169050919050565b60006200020782620001da565b9050919050565b6200021981620001fa565b81146200022557600080fd5b50565b60008151905062000239816200020e565b92915050565b600060208284031215620002585762000257620001d5565b5b6000620002688482850162000228565b91505092915050565b6200027c81620001fa565b82525050565b600060208201905062000299600083018462000271565b92915050565b611d3580620002af6000396000f3fe608060405234801561001057600080fd5b50600436106100ea5760003560e01c8063aaccf1ec1161008c578063cdb6d52d11610066578063cdb6d52d14610251578063d7ca38f31461026d578063de74e57b1461028b578063f2fde38b146102bf576100ea565b8063aaccf1ec146101e7578063b842ec4414610205578063c8a9fb5e14610235576100ea565b8063715018a6116100c8578063715018a61461015957806386cfa7d3146101635780638da5cb5b146101935780639ace38c2146101b1576100ea565b8063107a274a146100ef578063305a67a81461011f5780634ec7fb811461013b575b600080fd5b610109600480360381019061010491906112db565b6102db565b60405161011691906113db565b60405180910390f35b610139600480360381019061013491906112db565b610397565b005b6101436104df565b6040516101509190611455565b60405180910390f35b610161610505565b005b61017d6004803603810190610178919061149c565b610519565b60405161018a91906114eb565b60405180910390f35b61019b61054a565b6040516101a89190611515565b60405180910390f35b6101cb60048036038101906101c691906112db565b610574565b6040516101de9796959493929190611530565b60405180910390f35b6101ef6105f6565b6040516101fc91906114eb565b60405180910390f35b61021f600480360381019061021a919061149c565b6105fc565b60405161022c91906114eb565b60405180910390f35b61024f600480360381019061024a919061159f565b61062d565b005b61026b6004803603810190610266919061159f565b610869565b005b610275610fc5565b60405161028291906114eb565b60405180910390f35b6102a560048036038101906102a091906112db565b610fcb565b6040516102b69594939291906115ee565b60405180910390f35b6102d960048036038101906102d49190611641565b61102e565b005b6102e3611259565b600560008381526020019081526020016000206040518060a0016040529081600082015481526020016001820160009054906101000a900473ffffffffffffffffffffffffffffffffffffffff1673ffffffffffffffffffffffffffffffffffffffff1673ffffffffffffffffffffffffffffffffffffffff16815260200160028201548152602001600382015481526020016004820160009054906101000a900460ff1615151515815250509050919050565b60006005600083815260200190815260200160002090508060010160009054906101000a900473ffffffffffffffffffffffffffffffffffffffff1673ffffffffffffffffffffffffffffffffffffffff163373ffffffffffffffffffffffffffffffffffffffff1614610440576040517f08c379a0000000000000000000000000000000000000000000000000000000008152600401610437906116cb565b60405180910390fd5b8060040160009054906101000a900460ff16610491576040517f08c379a000000000000000000000000000000000000000000000000000000000815260040161048890611737565b60405180910390fd5b60008160040160006101000a81548160ff021916908315150217905550817f411aee90354c51b1b04cd563fcab2617142a9d50da19232d888547c8a1b7fd8a60405160405180910390a25050565b600260009054906101000a900473ffffffffffffffffffffffffffffffffffffffff1681565b61050d6110b4565b610517600061113b565b565b6007602052816000526040600020818154811061053557600080fd5b90600052602060002001600091509150505481565b6000600160009054906101000a900473ffffffffffffffffffffffffffffffffffffffff16905090565b60066020528060005260406000206000915090508060000154908060010154908060020160009054906101000a900473ffffffffffffffffffffffffffffffffffffffff16908060030160009054906101000a900473ffffffffffffffffffffffffffffffffffffffff16908060040154908060050154908060060154905087565b60035481565b6008602052816000526040600020818154811061061857600080fd5b90600052602060002001600091509150505481565b60008211610670576040517f08c379a0000000000000000000000000000000000000000000000000000000008152600401610667906117a3565b60405180910390fd5b600081116106b3576040517f08c379a00000000000000000000000000000000000000000000000000000000081526004016106aa9061180f565b60405180910390fd5b6040518060a0016040528060035481526020013373ffffffffffffffffffffffffffffffffffffffff168152602001838152602001828152602001600115158152506005600060035481526020019081526020016000206000820151816000015560208201518160010160006101000a81548173ffffffffffffffffffffffffffffffffffffffff021916908373ffffffffffffffffffffffffffffffffffffffff160217905550604082015181600201556060820151816003015560808201518160040160006101000a81548160ff021916908315150217905550905050600760003373ffffffffffffffffffffffffffffffffffffffff1673ffffffffffffffffffffffffffffffffffffffff16815260200190815260200160002060035490806001815401808255809150506001900390600052602060002001600090919091909150553373ffffffffffffffffffffffffffffffffffffffff166003547fdce237255d5bd98b57c816861c3b76c8e47e10382084f482135e29cb83a534be848460405161084592919061182f565b60405180910390a36003600081548092919061086090611887565b91905055505050565b610871611201565b60006005600084815260200190815260200160002090508060040160009054906101000a900460ff166108d9576040517f08c379a00000000000000000000000000000000000000000000000000000000081526004016108d09061191b565b60405180910390fd5b8181600201541015610920576040517f08c379a000000000000000000000000000000000000000000000000000000000815260040161091790611987565b60405180910390fd5b8060010160009054906101000a900473ffffffffffffffffffffffffffffffffffffffff1673ffffffffffffffffffffffffffffffffffffffff163373ffffffffffffffffffffffffffffffffffffffff16036109b2576040517f08c379a00000000000000000000000000000000000000000000000000000000081526004016109a9906119f3565b60405180910390fd5b60008160030154836109c49190611a13565b905080600260009054906101000a900473ffffffffffffffffffffffffffffffffffffffff1673ffffffffffffffffffffffffffffffffffffffff166370a08231336040518263ffffffff1660e01b8152600401610a229190611515565b602060405180830381865afa158015610a3f573d6000803e3d6000fd5b505050506040513d601f19601f82011682018060405250810190610a639190611a6a565b1015610aa4576040517f08c379a0000000000000000000000000000000000000000000000000000000008152600401610a9b90611ae3565b60405180910390fd5b80600260009054906101000a900473ffffffffffffffffffffffffffffffffffffffff1673ffffffffffffffffffffffffffffffffffffffff1663dd62ed3e33306040518363ffffffff1660e01b8152600401610b02929190611b03565b602060405180830381865afa158015610b1f573d6000803e3d6000fd5b505050506040513d601f19601f82011682018060405250810190610b439190611a6a565b1015610b84576040517f08c379a0000000000000000000000000000000000000000000000000000000008152600401610b7b90611b78565b60405180910390fd5b6000600260009054906101000a900473ffffffffffffffffffffffffffffffffffffffff1673ffffffffffffffffffffffffffffffffffffffff166323b872dd338560010160009054906101000a900473ffffffffffffffffffffffffffffffffffffffff16856040518463ffffffff1660e01b8152600401610c0993929190611b98565b6020604051808303816000875af1158015610c28573d6000803e3d6000fd5b505050506040513d601f19601f82011682018060405250810190610c4c9190611bfb565b905080610c8e576040517f08c379a0000000000000000000000000000000000000000000000000000000008152600401610c8590611c74565b60405180910390fd5b83836002016000828254610ca29190611c94565b925050819055506000836002015403610cd35760008360040160006101000a81548160ff0219169083151502179055505b6040518060e0016040528060045481526020018681526020013373ffffffffffffffffffffffffffffffffffffffff1681526020018460010160009054906101000a900473ffffffffffffffffffffffffffffffffffffffff1673ffffffffffffffffffffffffffffffffffffffff16815260200185815260200183815260200142815250600660006004548152602001908152602001600020600082015181600001556020820151816001015560408201518160020160006101000a81548173ffffffffffffffffffffffffffffffffffffffff021916908373ffffffffffffffffffffffffffffffffffffffff16021790555060608201518160030160006101000a81548173ffffffffffffffffffffffffffffffffffffffff021916908373ffffffffffffffffffffffffffffffffffffffff1602179055506080820151816004015560a0820151816005015560c08201518160060155905050600860003373ffffffffffffffffffffffffffffffffffffffff1673ffffffffffffffffffffffffffffffffffffffff1681526020019081526020016000206004549080600181540180825580915050600190039060005260206000200160009091909190915055600860008460010160009054906101000a900473ffffffffffffffffffffffffffffffffffffffff1673ffffffffffffffffffffffffffffffffffffffff1673ffffffffffffffffffffffffffffffffffffffff16815260200190815260200160002060045490806001815401808255809150506001900390600052602060002001600090919091909150553373ffffffffffffffffffffffffffffffffffffffff16856004547f58a66e0f24d9e3668c2481952df3e35fe4caa1737d50d1f985b9afbe26420ac58660010160009054906101000a900473ffffffffffffffffffffffffffffffffffffffff168887604051610f9693929190611cc8565b60405180910390a460046000815480929190610fb190611887565b9190505550505050610fc1611247565b5050565b60045481565b60056020528060005260406000206000915090508060000154908060010160009054906101000a900473ffffffffffffffffffffffffffffffffffffffff16908060020154908060030154908060040160009054906101000a900460ff16905085565b6110366110b4565b600073ffffffffffffffffffffffffffffffffffffffff168173ffffffffffffffffffffffffffffffffffffffff16036110a85760006040517f1e4fbdf700000000000000000000000000000000000000000000000000000000815260040161109f9190611515565b60405180910390fd5b6110b18161113b565b50565b6110bc611251565b73ffffffffffffffffffffffffffffffffffffffff166110da61054a565b73ffffffffffffffffffffffffffffffffffffffff1614611139576110fd611251565b6040517f118cdaa70000000000000000000000000000000000000000000000000000000081526004016111309190611515565b60405180910390fd5b565b6000600160009054906101000a900473ffffffffffffffffffffffffffffffffffffffff16905081600160006101000a81548173ffffffffffffffffffffffffffffffffffffffff021916908373ffffffffffffffffffffffffffffffffffffffff1602179055508173ffffffffffffffffffffffffffffffffffffffff168173ffffffffffffffffffffffffffffffffffffffff167f8be0079c531659141344cd1fd0a4f28419497f9722a3daafe3b4186f6b6457e060405160405180910390a35050565b60026000540361123d576040517f3ee5aeb500000000000000000000000000000000000000000000000000000000815260040160405180910390fd5b6002600081905550565b6001600081905550565b600033905090565b6040518060a0016040528060008152602001600073ffffffffffffffffffffffffffffffffffffffff16815260200160008152602001600081526020016000151581525090565b600080fd5b6000819050919050565b6112b8816112a5565b81146112c357600080fd5b50565b6000813590506112d5816112af565b92915050565b6000602082840312156112f1576112f06112a0565b5b60006112ff848285016112c6565b91505092915050565b611311816112a5565b82525050565b600073ffffffffffffffffffffffffffffffffffffffff82169050919050565b600061134282611317565b9050919050565b61135281611337565b82525050565b60008115159050919050565b61136d81611358565b82525050565b60a0820160008201516113896000850182611308565b50602082015161139c6020850182611349565b5060408201516113af6040850182611308565b5060608201516113c26060850182611308565b5060808201516113d56080850182611364565b50505050565b600060a0820190506113f06000830184611373565b92915050565b6000819050919050565b600061141b61141661141184611317565b6113f6565b611317565b9050919050565b600061142d82611400565b9050919050565b600061143f82611422565b9050919050565b61144f81611434565b82525050565b600060208201905061146a6000830184611446565b92915050565b61147981611337565b811461148457600080fd5b50565b60008135905061149681611470565b92915050565b600080604083850312156114b3576114b26112a0565b5b60006114c185828601611487565b92505060206114d2858286016112c6565b9150509250929050565b6114e5816112a5565b82525050565b600060208201905061150060008301846114dc565b92915050565b61150f81611337565b82525050565b600060208201905061152a6000830184611506565b92915050565b600060e082019050611545600083018a6114dc565b61155260208301896114dc565b61155f6040830188611506565b61156c6060830187611506565b61157960808301866114dc565b61158660a08301856114dc565b61159360c08301846114dc565b98975050505050505050565b600080604083850312156115b6576115b56112a0565b5b60006115c4858286016112c6565b92505060206115d5858286016112c6565b9150509250929050565b6115e881611358565b82525050565b600060a08201905061160360008301886114dc565b6116106020830187611506565b61161d60408301866114dc565b61162a60608301856114dc565b61163760808301846115df565b9695505050505050565b600060208284031215611657576116566112a0565b5b600061166584828501611487565b91505092915050565b600082825260208201905092915050565b7f4f6e6c792073656c6c65722063616e2063616e63656c00000000000000000000600082015250565b60006116b560168361166e565b91506116c08261167f565b602082019050919050565b600060208201905081810360008301526116e4816116a8565b9050919050565b7f4c697374696e6720616c726561647920696e6163746976650000000000000000600082015250565b600061172160188361166e565b915061172c826116eb565b602082019050919050565b6000602082019050818103600083015261175081611714565b9050919050565b7f416d6f756e74206d7573742062652067726561746572207468616e2030000000600082015250565b600061178d601d8361166e565b915061179882611757565b602082019050919050565b600060208201905081810360008301526117bc81611780565b9050919050565b7f5072696365206d7573742062652067726561746572207468616e203000000000600082015250565b60006117f9601c8361166e565b9150611804826117c3565b602082019050919050565b60006020820190508181036000830152611828816117ec565b9050919050565b600060408201905061184460008301856114dc565b61185160208301846114dc565b9392505050565b7f4e487b7100000000000000000000000000000000000000000000000000000000600052601160045260246000fd5b6000611892826112a5565b91507fffffffffffffffffffffffffffffffffffffffffffffffffffffffffffffffff82036118c4576118c3611858565b5b600182019050919050565b7f4c697374696e67206973206e6f74206163746976650000000000000000000000600082015250565b600061190560158361166e565b9150611910826118cf565b602082019050919050565b60006020820190508181036000830152611934816118f8565b9050919050565b7f496e73756666696369656e7420656e6572677920617661696c61626c65000000600082015250565b6000611971601d8361166e565b915061197c8261193b565b602082019050919050565b600060208201905081810360008301526119a081611964565b9050919050565b7f43616e6e6f742062757920796f7572206f776e20656e65726779000000000000600082015250565b60006119dd601a8361166e565b91506119e8826119a7565b602082019050919050565b60006020820190508181036000830152611a0c816119d0565b9050919050565b6000611a1e826112a5565b9150611a29836112a5565b9250828202611a37816112a5565b91508282048414831517611a4e57611a4d611858565b5b5092915050565b600081519050611a64816112af565b92915050565b600060208284031215611a8057611a7f6112a0565b5b6000611a8e84828501611a55565b91505092915050565b7f496e73756666696369656e7420746f6b656e2062616c616e6365000000000000600082015250565b6000611acd601a8361166e565b9150611ad882611a97565b602082019050919050565b60006020820190508181036000830152611afc81611ac0565b9050919050565b6000604082019050611b186000830185611506565b611b256020830184611506565b9392505050565b7f496e73756666696369656e7420616c6c6f77616e636500000000000000000000600082015250565b6000611b6260168361166e565b9150611b6d82611b2c565b602082019050919050565b60006020820190508181036000830152611b9181611b55565b9050919050565b6000606082019050611bad6000830186611506565b611bba6020830185611506565b611bc760408301846114dc565b949350505050565b611bd881611358565b8114611be357600080fd5b50565b600081519050611bf581611bcf565b92915050565b600060208284031215611c1157611c106112a0565b5b6000611c1f84828501611be6565b91505092915050565b7f546f6b656e207472616e73666572206661696c65640000000000000000000000600082015250565b6000611c5e60158361166e565b9150611c6982611c28565b602082019050919050565b60006020820190508181036000830152611c8d81611c51565b9050919050565b6000611c9f826112a5565b9150611caa836112a5565b9250828203905081811115611cc257611cc1611858565b5b92915050565b6000606082019050611cdd6000830186611506565b611cea60208301856114dc565b611cf760408301846114dc565b94935050505056fea2646970667358221220b3613f0cb706362ce39f6cb0fb6e243f9b3367634445ecc3fe6b44b8408e2b2a64736f6c63430008140033",
  "linkReferences": {},
  "deployedLinkReferences": {}
}